{
  "contractName": "Loan",
  "abi": [
    {
      "inputs": [
        {
          "internalType": "address",
          "name": "_lender",
          "type": "address"
        },
        {
          "internalType": "address",
          "name": "_borrower",
          "type": "address"
        },
        {
          "internalType": "uint256",
          "name": "_payoffAmount",
          "type": "uint256"
        },
        {
          "internalType": "uint256",
          "name": "_loanDuration",
          "type": "uint256"
        },
        {
          "internalType": "uint256",
          "name": "_streamAmount",
          "type": "uint256"
        }
      ],
      "stateMutability": "nonpayable",
      "type": "constructor"
    },
    {
      "anonymous": false,
      "inputs": [
        {
          "indexed": false,
          "internalType": "uint256",
          "name": "",
          "type": "uint256"
        },
        {
          "indexed": false,
          "internalType": "uint256",
          "name": "",
          "type": "uint256"
        },
        {
          "indexed": false,
          "internalType": "uint256",
          "name": "",
          "type": "uint256"
        },
        {
          "indexed": false,
          "internalType": "uint256",
          "name": "",
          "type": "uint256"
        }
      ],
      "name": "LoanPaid",
      "type": "event"
    },
    {
      "inputs": [],
      "name": "borrower",
      "outputs": [
        {
          "internalType": "address",
          "name": "",
          "type": "address"
        }
      ],
      "stateMutability": "view",
      "type": "function"
    },
    {
      "inputs": [],
      "name": "dueDate",
      "outputs": [
        {
          "internalType": "uint256",
          "name": "",
          "type": "uint256"
        }
      ],
      "stateMutability": "view",
      "type": "function"
    },
    {
      "inputs": [],
      "name": "lender",
      "outputs": [
        {
          "internalType": "address",
          "name": "",
          "type": "address"
        }
      ],
      "stateMutability": "view",
      "type": "function"
    },
    {
      "inputs": [],
      "name": "loanDuration",
      "outputs": [
        {
          "internalType": "uint256",
          "name": "",
          "type": "uint256"
        }
      ],
      "stateMutability": "view",
      "type": "function"
    },
    {
      "inputs": [],
      "name": "payoffAmount",
      "outputs": [
        {
          "internalType": "uint256",
          "name": "",
          "type": "uint256"
        }
      ],
      "stateMutability": "view",
      "type": "function"
    },
    {
      "inputs": [],
      "name": "streamAmount",
      "outputs": [
        {
          "internalType": "uint256",
          "name": "",
          "type": "uint256"
        }
      ],
      "stateMutability": "view",
      "type": "function"
    },
    {
      "inputs": [],
      "name": "updatedDate",
      "outputs": [
        {
          "internalType": "uint256",
          "name": "",
          "type": "uint256"
        }
      ],
      "stateMutability": "view",
      "type": "function"
    },
    {
      "inputs": [
        {
          "internalType": "uint256",
          "name": "_payoffAmount",
          "type": "uint256"
        },
        {
          "internalType": "uint256",
          "name": "_loanDuration",
          "type": "uint256"
        },
        {
          "internalType": "uint256",
          "name": "_streamAmount",
          "type": "uint256"
        }
      ],
      "name": "updateLoan",
      "outputs": [],
      "stateMutability": "nonpayable",
      "type": "function"
    },
    {
      "inputs": [
        {
          "internalType": "uint256",
          "name": "_payoffAmount",
          "type": "uint256"
        },
        {
          "internalType": "uint256",
          "name": "_loanDuration",
          "type": "uint256"
        },
        {
          "internalType": "uint256",
          "name": "_streamAmount",
          "type": "uint256"
        }
      ],
      "name": "partPayment",
      "outputs": [],
      "stateMutability": "payable",
      "type": "function"
    },
    {
      "inputs": [],
      "name": "preClosure",
      "outputs": [],
      "stateMutability": "payable",
      "type": "function"
    },
    {
      "inputs": [],
      "name": "finalize",
      "outputs": [],
      "stateMutability": "nonpayable",
      "type": "function"
    }
  ],
  "bytecode": "0x608060405234801561001057600080fd5b50604051610750380380610750833981810160405260a081101561003357600080fd5b810190808051906020019092919080519060200190929190805190602001909291908051906020019092919080519060200190929190505050846000806101000a81548173ffffffffffffffffffffffffffffffffffffffff021916908373ffffffffffffffffffffffffffffffffffffffff16021790555083600160006101000a81548173ffffffffffffffffffffffffffffffffffffffff021916908373ffffffffffffffffffffffffffffffffffffffff1602179055508260028190555081600481905550426005819055506004544201600381905550806006819055505050505050610628806101286000396000f3fe60806040526004361061009c5760003560e01c8063a0b5799511610064578063a0b579951461017d578063bcead63e146101bf578063be1abba514610200578063c406b8771461022b578063dfabd0c514610256578063f5521bf1146102815761009c565b8063280a4e25146100a15780634bb278f3146100f0578063724de08414610107578063786716fe146101115780637df1f1b91461013c575b600080fd5b3480156100ad57600080fd5b506100ee600480360360608110156100c457600080fd5b810190808035906020019092919080359060200190929190803590602001909291905050506102ac565b005b3480156100fc57600080fd5b5061010561031c565b005b61010f610355565b005b34801561011d57600080fd5b50610126610487565b6040518082815260200191505060405180910390f35b34801561014857600080fd5b5061015161048d565b604051808273ffffffffffffffffffffffffffffffffffffffff16815260200191505060405180910390f35b6101bd6004803603606081101561019357600080fd5b810190808035906020019092919080359060200190929190803590602001909291905050506104b3565b005b3480156101cb57600080fd5b506101d4610593565b604051808273ffffffffffffffffffffffffffffffffffffffff16815260200191505060405180910390f35b34801561020c57600080fd5b506102156105b7565b6040518082815260200191505060405180910390f35b34801561023757600080fd5b506102406105bd565b6040518082815260200191505060405180910390f35b34801561026257600080fd5b5061026b6105c3565b6040518082815260200191505060405180910390f35b34801561028d57600080fd5b506102966105c9565b6040518082815260200191505060405180910390f35b826002819055508160048190555080600681905550426005819055507f317db9e2128a840a9afef811f4a34e12ca17606b9e8d0010a925c0b4e606adf3838383426040518085815260200184815260200183815260200182815260200194505050505060405180910390a1505050565b60008054906101000a900473ffffffffffffffffffffffffffffffffffffffff1673ffffffffffffffffffffffffffffffffffffffff16ff5b60025434146103af576040517f08c379a00000000000000000000000000000000000000000000000000000000081526004018080602001828103825260238152602001806105d06023913960400191505060405180910390fd5b600160009054906101000a900473ffffffffffffffffffffffffffffffffffffffff1673ffffffffffffffffffffffffffffffffffffffff163373ffffffffffffffffffffffffffffffffffffffff161461040957600080fd5b60008054906101000a900473ffffffffffffffffffffffffffffffffffffffff1673ffffffffffffffffffffffffffffffffffffffff166108fc349081150290604051600060405180830381858888f1935050505015801561046f573d6000803e3d6000fd5b5061047d60008060006102ac565b61048561031c565b565b60035481565b600160009054906101000a900473ffffffffffffffffffffffffffffffffffffffff1681565b6003544211156104c257600080fd5b600160009054906101000a900473ffffffffffffffffffffffffffffffffffffffff1673ffffffffffffffffffffffffffffffffffffffff163373ffffffffffffffffffffffffffffffffffffffff161461051c57600080fd5b60008054906101000a900473ffffffffffffffffffffffffffffffffffffffff1673ffffffffffffffffffffffffffffffffffffffff166108fc349081150290604051600060405180830381858888f19350505050158015610582573d6000803e3d6000fd5b5061058e8383836102ac565b505050565b60008054906101000a900473ffffffffffffffffffffffffffffffffffffffff1681565b60025481565b60055481565b60065481565b6004548156fe506179206f666620616d6f756e742076616c7565206973206e6f7420636f7272656374a2646970667358221220b1f829ca0a0e5395b4a2cf62b01243d008fe38dc0c246c23000c390e672b523664736f6c63430007000033",
  "immutableReferences": {},
  "source": "//SPDX-License-Identifier: UNLICENSED\npragma solidity >=0.4.22 <0.9.0;\n\nimport \"@openzeppelin/contracts/utils/Counters.sol\";\nimport \"@openzeppelin/contracts/token/ERC20/ERC20.sol\";\n\ncontract Loan {\n    address public lender;\n    address public borrower;\n    uint256 public payoffAmount;\n    uint256 public dueDate;\n    uint256 public loanDuration;\n    uint256 public updatedDate;\n    uint256 public streamAmount;\n    \n\n    constructor(\n        address _lender,\n        address _borrower,\n        uint256 _payoffAmount,\n        uint256 _loanDuration,\n        uint256 _streamAmount\n    )\n    {\n        lender = _lender;\n        borrower = _borrower;\n        payoffAmount = _payoffAmount;\n        loanDuration = _loanDuration;\n        updatedDate = block.timestamp;\n        dueDate = block.timestamp + loanDuration;\n        streamAmount = _streamAmount;\n    }\n\n    event LoanPaid(uint256, uint256, uint256, uint256);\n    \n    function updateLoan(uint256 _payoffAmount, uint256 _loanDuration, uint256 _streamAmount) public {\n        payoffAmount = _payoffAmount;\n        loanDuration = _loanDuration;\n        streamAmount = _streamAmount;\n        updatedDate = block.timestamp;\n        emit LoanPaid(_payoffAmount,_loanDuration, _streamAmount, block.timestamp);\n    }\n    \n    function partPayment(uint256 _payoffAmount, uint256 _loanDuration, uint256 _streamAmount) public payable {\n        require(block.timestamp <= dueDate);\n        require(msg.sender == borrower);\n        payable(lender).transfer(msg.value);\n        updateLoan(_payoffAmount, _loanDuration, _streamAmount);\n        \n    }\n    \n    function preClosure() public payable {\n        require(msg.value == payoffAmount, \"Pay off amount value is not correct\");\n        require(msg.sender == borrower);\n        payable(lender).transfer(msg.value);\n        updateLoan(0, 0, 0);\n        finalize();\n    }\n    \n    function finalize() public {\n        selfdestruct(payable(lender));\n    }\n\n}\n\ncontract LoanRequest {\n    address public borrower;\n    string public borrowerName;\n    string public borrowerEmail;\n    string public panCard;\n    string public uid;\n    string public loanPurpose;\n    string public guaranteer;\n    uint256 public loanAmount;\n    uint256 public payoffAmount;\n    uint256 public loanDuration; //In hours\n    uint256 public loanFrequency;\n    uint256 public streamAmount;\n\n    constructor (\n        string memory _borrowerName,\n        string memory _borrowerEmail,\n        string memory _panCard,\n        string memory _uid,\n        string memory _loanPurpose,\n        string memory _guaranteer,\n        uint256 _loanAmount,\n        uint256 _payoffAmount,\n        uint256 _loanDuration\n    )\n    {\n        borrowerName = _borrowerName;\n        borrowerEmail = _borrowerEmail;\n        panCard = _panCard;\n        uid = _uid;\n        loanPurpose = _loanPurpose;\n        guaranteer = _guaranteer;\n        loanAmount = _loanAmount;\n        payoffAmount = _payoffAmount;\n        loanDuration = _loanDuration;\n        borrower = msg.sender;\n    }\n\n    event LoanRequestAccepted(address loan);\n    Loan public loan;\n    function lendEther() public payable {\n        require(msg.value == loanAmount);\n    \n        loan = new Loan(\n            msg.sender,\n            borrower,\n            payoffAmount,\n            loanDuration,\n            streamAmount\n        );\n        //require(token.transferFrom(borrower, loan, collateralAmount));\n        payable(borrower).transfer(loanAmount);\n        emit LoanRequestAccepted(address(loan));\n    }\n\n    function getLoanDetails() public returns(\n        uint256,\n        uint256,\n        uint256,\n        uint256,\n        uint256){\n            return (\n            loanAmount,\n            payoffAmount,\n            loanDuration, //In hours\n            loanFrequency,\n            streamAmount\n            );\n    }\n}\n",
  "sourcePath": "/Users/gyan/Documents/ProjectGyan/Hackathons/SuperFluidLoan/TruffleSuperfluid/contracts/Loan.sol",
  "compiler": {
    "name": "solc",
    "version": "0.7.0+commit.9e61f92b.Emscripten.clang"
  },
  "schemaVersion": "3.4.2",
  "updatedAt": "2021-08-06T16:09:36.091Z",
  "devdoc": {
    "kind": "dev",
    "methods": {},
    "version": 1
  },
  "userdoc": {
    "kind": "user",
    "methods": {},
    "version": 1
  }
}